{
  "contractName": "Basil",
  "abi": [
    {
      "constant": true,
      "inputs": [],
      "name": "highestDonation",
      "outputs": [
        {
          "name": "",
          "type": "uint256"
        }
      ],
      "payable": false,
      "stateMutability": "view",
      "type": "function"
    },
    {
      "constant": true,
      "inputs": [],
      "name": "initialized",
      "outputs": [
        {
          "name": "",
          "type": "bool"
        }
      ],
      "payable": false,
      "stateMutability": "view",
      "type": "function"
    },
    {
      "constant": true,
      "inputs": [],
      "name": "b",
      "outputs": [
        {
          "name": "",
          "type": "uint256"
        }
      ],
      "payable": false,
      "stateMutability": "view",
      "type": "function"
    },
    {
      "constant": true,
      "inputs": [],
      "name": "version",
      "outputs": [
        {
          "name": "",
          "type": "string"
        }
      ],
      "payable": false,
      "stateMutability": "view",
      "type": "function"
    },
    {
      "constant": true,
      "inputs": [],
      "name": "implementation",
      "outputs": [
        {
          "name": "",
          "type": "address"
        }
      ],
      "payable": false,
      "stateMutability": "view",
      "type": "function"
    },
    {
      "constant": true,
      "inputs": [],
      "name": "r",
      "outputs": [
        {
          "name": "",
          "type": "uint256"
        }
      ],
      "payable": false,
      "stateMutability": "view",
      "type": "function"
    },
    {
      "constant": true,
      "inputs": [],
      "name": "upgradeabilityOwner",
      "outputs": [
        {
          "name": "",
          "type": "address"
        }
      ],
      "payable": false,
      "stateMutability": "view",
      "type": "function"
    },
    {
      "constant": true,
      "inputs": [],
      "name": "registry",
      "outputs": [
        {
          "name": "",
          "type": "address"
        }
      ],
      "payable": false,
      "stateMutability": "view",
      "type": "function"
    },
    {
      "constant": true,
      "inputs": [],
      "name": "owner",
      "outputs": [
        {
          "name": "",
          "type": "address"
        }
      ],
      "payable": false,
      "stateMutability": "view",
      "type": "function"
    },
    {
      "constant": true,
      "inputs": [],
      "name": "g",
      "outputs": [
        {
          "name": "",
          "type": "uint256"
        }
      ],
      "payable": false,
      "stateMutability": "view",
      "type": "function"
    },
    {
      "constant": false,
      "inputs": [
        {
          "name": "newOwner",
          "type": "address"
        }
      ],
      "name": "transferOwnership",
      "outputs": [],
      "payable": false,
      "stateMutability": "nonpayable",
      "type": "function"
    },
    {
      "inputs": [],
      "payable": false,
      "stateMutability": "nonpayable",
      "type": "constructor"
    },
    {
      "anonymous": false,
      "inputs": [
        {
          "indexed": true,
          "name": "wallet",
          "type": "address"
        },
        {
          "indexed": false,
          "name": "value",
          "type": "uint256"
        }
      ],
      "name": "Withdrawal",
      "type": "event"
    },
    {
      "anonymous": false,
      "inputs": [
        {
          "indexed": true,
          "name": "donor",
          "type": "address"
        },
        {
          "indexed": false,
          "name": "value",
          "type": "uint256"
        },
        {
          "indexed": false,
          "name": "r",
          "type": "uint256"
        },
        {
          "indexed": false,
          "name": "g",
          "type": "uint256"
        },
        {
          "indexed": false,
          "name": "b",
          "type": "uint256"
        }
      ],
      "name": "NewDonation",
      "type": "event"
    },
    {
      "anonymous": false,
      "inputs": [
        {
          "indexed": false,
          "name": "previousOwner",
          "type": "address"
        },
        {
          "indexed": false,
          "name": "newOwner",
          "type": "address"
        }
      ],
      "name": "OwnershipTransferred",
      "type": "event"
    },
    {
      "constant": false,
      "inputs": [
        {
          "name": "owner",
          "type": "address"
        }
      ],
      "name": "initialize",
      "outputs": [],
      "payable": false,
      "stateMutability": "nonpayable",
      "type": "function"
    },
    {
      "constant": false,
      "inputs": [
        {
          "name": "_r",
          "type": "uint256"
        },
        {
          "name": "_g",
          "type": "uint256"
        },
        {
          "name": "_b",
          "type": "uint256"
        }
      ],
      "name": "donate",
      "outputs": [],
      "payable": true,
      "stateMutability": "payable",
      "type": "function"
    },
    {
      "constant": false,
      "inputs": [
        {
          "name": "wallet",
          "type": "address"
        }
      ],
      "name": "withdraw",
      "outputs": [],
      "payable": false,
      "stateMutability": "nonpayable",
      "type": "function"
    }
  ],
  "bytecode": "0x6060604052341561000f57600080fd5b600080806000806101000a81548173ffffffffffffffffffffffffffffffffffffffff021916908373ffffffffffffffffffffffffffffffffffffffff1602179055505050610070336100756401000000000261095b176401000000009004565b6100b9565b80600960006101000a81548173ffffffffffffffffffffffffffffffffffffffff021916908373ffffffffffffffffffffffffffffffffffffffff16021790555050565b6109df806100c86000396000f3006060604052600436106100d0576000357c0100000000000000000000000000000000000000000000000000000000900463ffffffff168063043f08e7146100d5578063158ef93e146100fe5780634df7e3d01461012b57806351cff8d91461015457806354fd4d501461018d5780635c60da1b1461021b5780636c8ae38c146102705780636fde8202146102995780637b103999146102ee5780638da5cb5b14610343578063c4d66de814610398578063e2179b8e146103d1578063ef88f48b146103fa578063f2fde38b14610424575b600080fd5b34156100e057600080fd5b6100e861045d565b6040518082815260200191505060405180910390f35b341561010957600080fd5b610111610463565b604051808215151515815260200191505060405180910390f35b341561013657600080fd5b61013e610476565b6040518082815260200191505060405180910390f35b341561015f57600080fd5b61018b600480803573ffffffffffffffffffffffffffffffffffffffff1690602001909190505061047c565b005b341561019857600080fd5b6101a06105cd565b6040518080602001828103825283818151815260200191508051906020019080838360005b838110156101e05780820151818401526020810190506101c5565b50505050905090810190601f16801561020d5780820380516001836020036101000a031916815260200191505b509250505060405180910390f35b341561022657600080fd5b61022e610675565b604051808273ffffffffffffffffffffffffffffffffffffffff1673ffffffffffffffffffffffffffffffffffffffff16815260200191505060405180910390f35b341561027b57600080fd5b61028361069f565b6040518082815260200191505060405180910390f35b34156102a457600080fd5b6102ac6106a5565b604051808273ffffffffffffffffffffffffffffffffffffffff1673ffffffffffffffffffffffffffffffffffffffff16815260200191505060405180910390f35b34156102f957600080fd5b6103016106cb565b604051808273ffffffffffffffffffffffffffffffffffffffff1673ffffffffffffffffffffffffffffffffffffffff16815260200191505060405180910390f35b341561034e57600080fd5b6103566106f4565b604051808273ffffffffffffffffffffffffffffffffffffffff1673ffffffffffffffffffffffffffffffffffffffff16815260200191505060405180910390f35b34156103a357600080fd5b6103cf600480803573ffffffffffffffffffffffffffffffffffffffff1690602001909190505061071e565b005b34156103dc57600080fd5b6103e4610761565b6040518082815260200191505060405180910390f35b6104226004808035906020019091908035906020019091908035906020019091905050610767565b005b341561042f57600080fd5b61045b600480803573ffffffffffffffffffffffffffffffffffffffff16906020019091905050610834565b005b60085481565b600760009054906101000a900460ff1681565b60065481565b60006104866106f4565b73ffffffffffffffffffffffffffffffffffffffff163373ffffffffffffffffffffffffffffffffffffffff161415156104bf57600080fd5b60003073ffffffffffffffffffffffffffffffffffffffff16311115156104e557600080fd5b600073ffffffffffffffffffffffffffffffffffffffff168273ffffffffffffffffffffffffffffffffffffffff161415151561052157600080fd5b3073ffffffffffffffffffffffffffffffffffffffff163190508173ffffffffffffffffffffffffffffffffffffffff166108fc829081150290604051600060405180830381858888f19350505050151561057b57600080fd5b8173ffffffffffffffffffffffffffffffffffffffff167f7fcf532c15f0a6db0bd6d0e038bea71d30d808c7d98cb3bf7268a95bf5081b65826040518082815260200191505060405180910390a25050565b6105d561099f565b60018054600181600116156101000203166002900480601f01602080910402602001604051908101604052809291908181526020018280546001816001161561010002031660029004801561066b5780601f106106405761010080835404028352916020019161066b565b820191906000526020600020905b81548152906001019060200180831161064e57829003601f168201915b5050505050905090565b6000600260009054906101000a900473ffffffffffffffffffffffffffffffffffffffff16905090565b60045481565b600360009054906101000a900473ffffffffffffffffffffffffffffffffffffffff1681565b60008060009054906101000a900473ffffffffffffffffffffffffffffffffffffffff16905090565b6000600960009054906101000a900473ffffffffffffffffffffffffffffffffffffffff16905090565b600760009054906101000a900460ff1615151561073a57600080fd5b6107438161095b565b6001600760006101000a81548160ff02191690831515021790555050565b60055481565b6101008310151561077757600080fd5b6101008210151561078757600080fd5b6101008110151561079757600080fd5b600854341115156107a757600080fd5b826004819055508160058190555080600681905550346008819055503373ffffffffffffffffffffffffffffffffffffffff167f0ca24adc7d2dbdb5d6700e357e2a1fc3a877de188791c4add93b5460ad524686346004546005546006546040518085815260200184815260200183815260200182815260200194505050505060405180910390a2505050565b61083c6106f4565b73ffffffffffffffffffffffffffffffffffffffff163373ffffffffffffffffffffffffffffffffffffffff1614151561087557600080fd5b600073ffffffffffffffffffffffffffffffffffffffff168173ffffffffffffffffffffffffffffffffffffffff16141515156108b157600080fd5b7f8be0079c531659141344cd1fd0a4f28419497f9722a3daafe3b4186f6b6457e06108da6106f4565b82604051808373ffffffffffffffffffffffffffffffffffffffff1673ffffffffffffffffffffffffffffffffffffffff1681526020018273ffffffffffffffffffffffffffffffffffffffff1673ffffffffffffffffffffffffffffffffffffffff1681526020019250505060405180910390a16109588161095b565b50565b80600960006101000a81548173ffffffffffffffffffffffffffffffffffffffff021916908373ffffffffffffffffffffffffffffffffffffffff16021790555050565b6020604051908101604052806000815250905600a165627a7a72305820016d5af5e30aa572728365bb4c1f17fc447ab8e65af8a363a5efcd9912132a550029",
  "source": "pragma solidity ^0.4.18;\n\nimport 'zos-core/contracts/ownership/Ownable.sol';\nimport './OwnedUpgradeableBasilStorage.sol';\n\n// TODO: needed for tests, see how to get truffle\n// to find these without this hack\nimport 'zos-core/contracts/Registry.sol';\nimport 'zos-core/contracts/Factory.sol';\n\n/**\n * @title Basil\n */\ncontract Basil is OwnedUpgradeableBasilStorage, Ownable {\n\n  function Basil() \n    Ownable()\n    OwnedUpgradeableBasilStorage()\n    public\n  {}\n  \n  event Withdrawal(address indexed wallet, uint256 value);\n  event NewDonation(address indexed donor, uint256 value, uint256 r, uint256 g, uint256 b);\n\n  function initialize(address owner) public {\n    require(!initialized);\n    setOwner(owner);\n    initialized = true;\n  }\n\n  function donate(uint256 _r, uint256 _g, uint256 _b) external payable {\n    require(_r < 256);\n    require(_g < 256);\n    require(_b < 256);\n    require(msg.value > highestDonation);\n\n    r = _r;\n    g = _g;\n    b = _b;\n    highestDonation = msg.value;\n    NewDonation(msg.sender, msg.value, r, g, b);\n  }\n\n  function withdraw(address wallet) public onlyOwner {\n    require(this.balance > 0);\n    require(wallet != address(0));\n    uint256 value = this.balance;\n    wallet.transfer(value);\n    Withdrawal(wallet, value);\n  }\n\n}\n",
  "sourcePath": "/home/maraoz/git/zos/basil/contracts/Basil.sol",
  "compiler": {
    "name": "solc",
    "version": "0.4.19+commit.c4cbbb05.Emscripten.clang"
  },
  "schemaVersion": "2.0.0",
  "updatedAt": "2018-03-09T16:10:18.088Z"
}