{
  "contractName": "Basil",
  "abi": [
    {
      "constant": true,
      "inputs": [],
      "name": "highestDonation",
      "outputs": [
        {
          "name": "",
          "type": "uint256"
        }
      ],
      "payable": false,
      "stateMutability": "view",
      "type": "function"
    },
    {
      "constant": true,
      "inputs": [],
      "name": "b",
      "outputs": [
        {
          "name": "",
          "type": "uint256"
        }
      ],
      "payable": false,
      "stateMutability": "view",
      "type": "function"
    },
    {
      "constant": true,
      "inputs": [],
      "name": "version",
      "outputs": [
        {
          "name": "",
          "type": "string"
        }
      ],
      "payable": false,
      "stateMutability": "view",
      "type": "function"
    },
    {
      "constant": true,
      "inputs": [],
      "name": "implementation",
      "outputs": [
        {
          "name": "",
          "type": "address"
        }
      ],
      "payable": false,
      "stateMutability": "view",
      "type": "function"
    },
    {
      "constant": true,
      "inputs": [],
      "name": "r",
      "outputs": [
        {
          "name": "",
          "type": "uint256"
        }
      ],
      "payable": false,
      "stateMutability": "view",
      "type": "function"
    },
    {
      "constant": true,
      "inputs": [],
      "name": "upgradeabilityOwner",
      "outputs": [
        {
          "name": "",
          "type": "address"
        }
      ],
      "payable": false,
      "stateMutability": "view",
      "type": "function"
    },
    {
      "constant": true,
      "inputs": [],
      "name": "registry",
      "outputs": [
        {
          "name": "",
          "type": "address"
        }
      ],
      "payable": false,
      "stateMutability": "view",
      "type": "function"
    },
    {
      "constant": true,
      "inputs": [],
      "name": "owner",
      "outputs": [
        {
          "name": "",
          "type": "address"
        }
      ],
      "payable": false,
      "stateMutability": "view",
      "type": "function"
    },
    {
      "constant": true,
      "inputs": [],
      "name": "g",
      "outputs": [
        {
          "name": "",
          "type": "uint256"
        }
      ],
      "payable": false,
      "stateMutability": "view",
      "type": "function"
    },
    {
      "constant": false,
      "inputs": [
        {
          "name": "newOwner",
          "type": "address"
        }
      ],
      "name": "transferOwnership",
      "outputs": [],
      "payable": false,
      "stateMutability": "nonpayable",
      "type": "function"
    },
    {
      "anonymous": false,
      "inputs": [
        {
          "indexed": true,
          "name": "wallet",
          "type": "address"
        },
        {
          "indexed": false,
          "name": "value",
          "type": "uint256"
        }
      ],
      "name": "Withdrawal",
      "type": "event"
    },
    {
      "anonymous": false,
      "inputs": [
        {
          "indexed": true,
          "name": "donor",
          "type": "address"
        },
        {
          "indexed": false,
          "name": "value",
          "type": "uint256"
        },
        {
          "indexed": false,
          "name": "r",
          "type": "uint256"
        },
        {
          "indexed": false,
          "name": "g",
          "type": "uint256"
        },
        {
          "indexed": false,
          "name": "b",
          "type": "uint256"
        }
      ],
      "name": "NewDonation",
      "type": "event"
    },
    {
      "anonymous": false,
      "inputs": [
        {
          "indexed": false,
          "name": "previousOwner",
          "type": "address"
        },
        {
          "indexed": false,
          "name": "newOwner",
          "type": "address"
        }
      ],
      "name": "OwnershipTransferred",
      "type": "event"
    },
    {
      "constant": false,
      "inputs": [
        {
          "name": "owner",
          "type": "address"
        }
      ],
      "name": "initialize",
      "outputs": [],
      "payable": false,
      "stateMutability": "nonpayable",
      "type": "function"
    },
    {
      "constant": false,
      "inputs": [
        {
          "name": "_r",
          "type": "uint256"
        },
        {
          "name": "_g",
          "type": "uint256"
        },
        {
          "name": "_b",
          "type": "uint256"
        }
      ],
      "name": "donate",
      "outputs": [],
      "payable": true,
      "stateMutability": "payable",
      "type": "function"
    },
    {
      "constant": false,
      "inputs": [
        {
          "name": "wallet",
          "type": "address"
        }
      ],
      "name": "withdraw",
      "outputs": [],
      "payable": false,
      "stateMutability": "nonpayable",
      "type": "function"
    }
  ],
  "bytecode": "0x6060604052336000806101000a81548173ffffffffffffffffffffffffffffffffffffffff021916908373ffffffffffffffffffffffffffffffffffffffff1602179055506100603361006564010000000002610914176401000000009004565b6100a9565b80600460006101000a81548173ffffffffffffffffffffffffffffffffffffffff021916908373ffffffffffffffffffffffffffffffffffffffff16021790555050565b610998806100b86000396000f3006060604052600436106100c5576000357c0100000000000000000000000000000000000000000000000000000000900463ffffffff168063043f08e7146100ca5780634df7e3d0146100f357806351cff8d91461011c57806354fd4d50146101555780635c60da1b146101e35780636c8ae38c146102385780636fde8202146102615780637b103999146102b65780638da5cb5b1461030b578063c4d66de814610360578063e2179b8e14610399578063ef88f48b146103c2578063f2fde38b146103ec575b600080fd5b34156100d557600080fd5b6100dd610425565b6040518082815260200191505060405180910390f35b34156100fe57600080fd5b61010661042b565b6040518082815260200191505060405180910390f35b341561012757600080fd5b610153600480803573ffffffffffffffffffffffffffffffffffffffff16906020019091905050610431565b005b341561016057600080fd5b610168610582565b6040518080602001828103825283818151815260200191508051906020019080838360005b838110156101a857808201518184015260208101905061018d565b50505050905090810190601f1680156101d55780820380516001836020036101000a031916815260200191505b509250505060405180910390f35b34156101ee57600080fd5b6101f661062a565b604051808273ffffffffffffffffffffffffffffffffffffffff1673ffffffffffffffffffffffffffffffffffffffff16815260200191505060405180910390f35b341561024357600080fd5b61024b610654565b6040518082815260200191505060405180910390f35b341561026c57600080fd5b61027461065a565b604051808273ffffffffffffffffffffffffffffffffffffffff1673ffffffffffffffffffffffffffffffffffffffff16815260200191505060405180910390f35b34156102c157600080fd5b6102c9610684565b604051808273ffffffffffffffffffffffffffffffffffffffff1673ffffffffffffffffffffffffffffffffffffffff16815260200191505060405180910390f35b341561031657600080fd5b61031e6106ad565b604051808273ffffffffffffffffffffffffffffffffffffffff1673ffffffffffffffffffffffffffffffffffffffff16815260200191505060405180910390f35b341561036b57600080fd5b610397600480803573ffffffffffffffffffffffffffffffffffffffff169060200190919050506106d7565b005b34156103a457600080fd5b6103ac61071a565b6040518082815260200191505060405180910390f35b6103ea6004808035906020019091908035906020019091908035906020019091905050610720565b005b34156103f757600080fd5b610423600480803573ffffffffffffffffffffffffffffffffffffffff169060200190919050506107ed565b005b60095481565b60075481565b600061043b6106ad565b73ffffffffffffffffffffffffffffffffffffffff163373ffffffffffffffffffffffffffffffffffffffff1614151561047457600080fd5b60003073ffffffffffffffffffffffffffffffffffffffff163111151561049a57600080fd5b600073ffffffffffffffffffffffffffffffffffffffff168273ffffffffffffffffffffffffffffffffffffffff16141515156104d657600080fd5b3073ffffffffffffffffffffffffffffffffffffffff163190508173ffffffffffffffffffffffffffffffffffffffff166108fc829081150290604051600060405180830381858888f19350505050151561053057600080fd5b8173ffffffffffffffffffffffffffffffffffffffff167f7fcf532c15f0a6db0bd6d0e038bea71d30d808c7d98cb3bf7268a95bf5081b65826040518082815260200191505060405180910390a25050565b61058a610958565b60018054600181600116156101000203166002900480601f0160208091040260200160405190810160405280929190818152602001828054600181600116156101000203166002900480156106205780601f106105f557610100808354040283529160200191610620565b820191906000526020600020905b81548152906001019060200180831161060357829003601f168201915b5050505050905090565b6000600260009054906101000a900473ffffffffffffffffffffffffffffffffffffffff16905090565b60055481565b6000600360009054906101000a900473ffffffffffffffffffffffffffffffffffffffff16905090565b60008060009054906101000a900473ffffffffffffffffffffffffffffffffffffffff16905090565b6000600460009054906101000a900473ffffffffffffffffffffffffffffffffffffffff16905090565b600860009054906101000a900460ff161515156106f357600080fd5b6106fc81610914565b6001600860006101000a81548160ff02191690831515021790555050565b60065481565b6101008310151561073057600080fd5b6101008210151561074057600080fd5b6101008110151561075057600080fd5b6009543411151561076057600080fd5b826005819055508160068190555080600781905550346009819055503373ffffffffffffffffffffffffffffffffffffffff167f0ca24adc7d2dbdb5d6700e357e2a1fc3a877de188791c4add93b5460ad524686346005546006546007546040518085815260200184815260200183815260200182815260200194505050505060405180910390a2505050565b6107f56106ad565b73ffffffffffffffffffffffffffffffffffffffff163373ffffffffffffffffffffffffffffffffffffffff1614151561082e57600080fd5b600073ffffffffffffffffffffffffffffffffffffffff168173ffffffffffffffffffffffffffffffffffffffff161415151561086a57600080fd5b7f8be0079c531659141344cd1fd0a4f28419497f9722a3daafe3b4186f6b6457e06108936106ad565b82604051808373ffffffffffffffffffffffffffffffffffffffff1673ffffffffffffffffffffffffffffffffffffffff1681526020018273ffffffffffffffffffffffffffffffffffffffff1673ffffffffffffffffffffffffffffffffffffffff1681526020019250505060405180910390a161091181610914565b50565b80600460006101000a81548173ffffffffffffffffffffffffffffffffffffffff021916908373ffffffffffffffffffffffffffffffffffffffff16021790555050565b6020604051908101604052806000815250905600a165627a7a72305820596d97af6d9c659b1297d9d8da97865693910a610e3d56c21c83b838fc8a413b0029",
  "source": "pragma solidity ^0.4.18;\n\nimport './ownership/Ownable.sol';\nimport './OwnedUpgradeableBasilStorage.sol';\nimport 'zeppelin-solidity/contracts/math/SafeMath.sol';\nimport 'zos-core/contracts/registry/Registry.sol';\n\n/**\n * @title Basil_V0\n * @dev Version 0 of a basil to show upgradeability.\n */\ncontract Basil is Ownable, OwnedUpgradeableBasilStorage {\n  \n  event Withdrawal(address indexed wallet, uint256 value);\n  event NewDonation(address indexed donor, uint256 value, uint256 r, uint256 g, uint256 b);\n\n  function initialize(address owner) public {\n    require(!_initialized);\n    setOwner(owner);\n    _initialized = true;\n  }\n\n  function donate(uint256 _r, uint256 _g, uint256 _b) external payable {\n    require(_r < 256);\n    require(_g < 256);\n    require(_b < 256);\n    require(msg.value > highestDonation);\n\n    r = _r;\n    g = _g;\n    b = _b;\n    highestDonation = msg.value;\n    NewDonation(msg.sender, msg.value, r, g, b);\n  }\n\n  function withdraw(address wallet) public onlyOwner {\n    require(this.balance > 0);\n    require(wallet != address(0));\n    uint256 value = this.balance;\n    wallet.transfer(value);\n    Withdrawal(wallet, value);\n  }\n\n}\n",
  "sourcePath": "/home/maraoz/git/zos/basil/contracts/Basil.sol",
  "compiler": {
    "name": "solc",
    "version": "0.4.19+commit.c4cbbb05.Emscripten.clang"
  },
  "schemaVersion": "2.0.0",
  "updatedAt": "2018-03-02T21:33:46.045Z"
}