{
  "contractName": "BasilStorage",
  "abi": [
    {
      "constant": true,
      "inputs": [],
      "name": "highestDonation",
      "outputs": [
        {
          "name": "",
          "type": "uint256"
        }
      ],
      "payable": false,
      "stateMutability": "view",
      "type": "function"
    },
    {
      "constant": true,
      "inputs": [],
      "name": "initialized",
      "outputs": [
        {
          "name": "",
          "type": "bool"
        }
      ],
      "payable": false,
      "stateMutability": "view",
      "type": "function"
    },
    {
      "constant": true,
      "inputs": [],
      "name": "b",
      "outputs": [
        {
          "name": "",
          "type": "uint256"
        }
      ],
      "payable": false,
      "stateMutability": "view",
      "type": "function"
    },
    {
      "constant": true,
      "inputs": [],
      "name": "r",
      "outputs": [
        {
          "name": "",
          "type": "uint256"
        }
      ],
      "payable": false,
      "stateMutability": "view",
      "type": "function"
    },
    {
      "constant": true,
      "inputs": [],
      "name": "g",
      "outputs": [
        {
          "name": "",
          "type": "uint256"
        }
      ],
      "payable": false,
      "stateMutability": "view",
      "type": "function"
    }
  ],
  "bytecode": "0x6060604052341561000f57600080fd5b61019a8061001e6000396000f30060606040526004361061006d576000357c0100000000000000000000000000000000000000000000000000000000900463ffffffff168063043f08e714610072578063158ef93e1461009b5780634df7e3d0146100c85780636c8ae38c146100f1578063e2179b8e1461011a575b600080fd5b341561007d57600080fd5b610085610143565b6040518082815260200191505060405180910390f35b34156100a657600080fd5b6100ae610149565b604051808215151515815260200191505060405180910390f35b34156100d357600080fd5b6100db61015c565b6040518082815260200191505060405180910390f35b34156100fc57600080fd5b610104610162565b6040518082815260200191505060405180910390f35b341561012557600080fd5b61012d610168565b6040518082815260200191505060405180910390f35b60045481565b600360009054906101000a900460ff1681565b60025481565b60005481565b600154815600a165627a7a72305820e80076aa62d6a5f627684cbcaebb7c03a4cbf8d49d43ec2618ce2d34c5d4d7180029",
  "source": "pragma solidity ^0.4.18;\n\n/**\n * @title BasilStorage\n * @dev This contract holds all the necessary state variables to carry out the storage of a basil contract\n */\ncontract BasilStorage {\n  // color\n  uint256 public r;\n  uint256 public g;\n  uint256 public b;\n\n  // Tells whether the basil has been initialized or not\n  bool public initialized;\n\n  // highest donation in wei\n  uint256 public highestDonation;\n}\n",
  "sourcePath": "/home/maraoz/git/zos/basil/contracts/BasilStorage.sol",
  "compiler": {
    "name": "solc",
    "version": "0.4.19+commit.c4cbbb05.Emscripten.clang"
  },
  "schemaVersion": "2.0.0",
  "updatedAt": "2018-03-09T16:10:18.089Z"
}