{
  "contractName": "Basil",
  "abi": [
    {
      "constant": true,
      "inputs": [],
      "name": "highestDonation",
      "outputs": [
        {
          "name": "",
          "type": "uint256"
        }
      ],
      "payable": false,
      "stateMutability": "view",
      "type": "function"
    },
    {
      "constant": true,
      "inputs": [],
      "name": "b",
      "outputs": [
        {
          "name": "",
          "type": "uint256"
        }
      ],
      "payable": false,
      "stateMutability": "view",
      "type": "function"
    },
    {
      "constant": true,
      "inputs": [],
      "name": "r",
      "outputs": [
        {
          "name": "",
          "type": "uint256"
        }
      ],
      "payable": false,
      "stateMutability": "view",
      "type": "function"
    },
    {
      "constant": true,
      "inputs": [],
      "name": "owner",
      "outputs": [
        {
          "name": "",
          "type": "address"
        }
      ],
      "payable": false,
      "stateMutability": "view",
      "type": "function"
    },
    {
      "constant": true,
      "inputs": [],
      "name": "g",
      "outputs": [
        {
          "name": "",
          "type": "uint256"
        }
      ],
      "payable": false,
      "stateMutability": "view",
      "type": "function"
    },
    {
      "constant": false,
      "inputs": [
        {
          "name": "newOwner",
          "type": "address"
        }
      ],
      "name": "transferOwnership",
      "outputs": [],
      "payable": false,
      "stateMutability": "nonpayable",
      "type": "function"
    },
    {
      "inputs": [],
      "payable": false,
      "stateMutability": "nonpayable",
      "type": "constructor"
    },
    {
      "anonymous": false,
      "inputs": [
        {
          "indexed": true,
          "name": "wallet",
          "type": "address"
        },
        {
          "indexed": false,
          "name": "value",
          "type": "uint256"
        }
      ],
      "name": "Withdrawal",
      "type": "event"
    },
    {
      "anonymous": false,
      "inputs": [
        {
          "indexed": true,
          "name": "donor",
          "type": "address"
        },
        {
          "indexed": false,
          "name": "value",
          "type": "uint256"
        },
        {
          "indexed": false,
          "name": "r",
          "type": "uint256"
        },
        {
          "indexed": false,
          "name": "g",
          "type": "uint256"
        },
        {
          "indexed": false,
          "name": "b",
          "type": "uint256"
        }
      ],
      "name": "NewDonation",
      "type": "event"
    },
    {
      "anonymous": false,
      "inputs": [
        {
          "indexed": true,
          "name": "previousOwner",
          "type": "address"
        },
        {
          "indexed": true,
          "name": "newOwner",
          "type": "address"
        }
      ],
      "name": "OwnershipTransferred",
      "type": "event"
    },
    {
      "constant": false,
      "inputs": [
        {
          "name": "_r",
          "type": "uint256"
        },
        {
          "name": "_g",
          "type": "uint256"
        },
        {
          "name": "_b",
          "type": "uint256"
        }
      ],
      "name": "donate",
      "outputs": [],
      "payable": true,
      "stateMutability": "payable",
      "type": "function"
    },
    {
      "constant": false,
      "inputs": [
        {
          "name": "wallet",
          "type": "address"
        }
      ],
      "name": "withdraw",
      "outputs": [],
      "payable": false,
      "stateMutability": "nonpayable",
      "type": "function"
    }
  ],
  "bytecode": "0x6060604052341561000f57600080fd5b336000806101000a81548173ffffffffffffffffffffffffffffffffffffffff021916908373ffffffffffffffffffffffffffffffffffffffff1602179055506105f88061005e6000396000f30060606040526004361061008e576000357c0100000000000000000000000000000000000000000000000000000000900463ffffffff168063043f08e7146100935780634df7e3d0146100bc57806351cff8d9146100e55780636c8ae38c1461011e5780638da5cb5b14610147578063e2179b8e1461019c578063ef88f48b146101c5578063f2fde38b146101ef575b600080fd5b341561009e57600080fd5b6100a6610228565b6040518082815260200191505060405180910390f35b34156100c757600080fd5b6100cf61022e565b6040518082815260200191505060405180910390f35b34156100f057600080fd5b61011c600480803573ffffffffffffffffffffffffffffffffffffffff16906020019091905050610234565b005b341561012957600080fd5b610131610379565b6040518082815260200191505060405180910390f35b341561015257600080fd5b61015a61037f565b604051808273ffffffffffffffffffffffffffffffffffffffff1673ffffffffffffffffffffffffffffffffffffffff16815260200191505060405180910390f35b34156101a757600080fd5b6101af6103a4565b6040518082815260200191505060405180910390f35b6101ed60048080359060200190919080359060200190919080359060200190919050506103aa565b005b34156101fa57600080fd5b610226600480803573ffffffffffffffffffffffffffffffffffffffff16906020019091905050610477565b005b60045481565b60035481565b60008060009054906101000a900473ffffffffffffffffffffffffffffffffffffffff1673ffffffffffffffffffffffffffffffffffffffff163373ffffffffffffffffffffffffffffffffffffffff1614151561029157600080fd5b600073ffffffffffffffffffffffffffffffffffffffff168273ffffffffffffffffffffffffffffffffffffffff16141515156102cd57600080fd5b3073ffffffffffffffffffffffffffffffffffffffff163190508173ffffffffffffffffffffffffffffffffffffffff166108fc829081150290604051600060405180830381858888f19350505050151561032757600080fd5b8173ffffffffffffffffffffffffffffffffffffffff167f7fcf532c15f0a6db0bd6d0e038bea71d30d808c7d98cb3bf7268a95bf5081b65826040518082815260200191505060405180910390a25050565b60015481565b6000809054906101000a900473ffffffffffffffffffffffffffffffffffffffff1681565b60025481565b610100831015156103ba57600080fd5b610100821015156103ca57600080fd5b610100811015156103da57600080fd5b600454341115156103ea57600080fd5b826001819055508160028190555080600381905550346004819055503373ffffffffffffffffffffffffffffffffffffffff167f0ca24adc7d2dbdb5d6700e357e2a1fc3a877de188791c4add93b5460ad524686346001546002546003546040518085815260200184815260200183815260200182815260200194505050505060405180910390a2505050565b6000809054906101000a900473ffffffffffffffffffffffffffffffffffffffff1673ffffffffffffffffffffffffffffffffffffffff163373ffffffffffffffffffffffffffffffffffffffff161415156104d257600080fd5b600073ffffffffffffffffffffffffffffffffffffffff168173ffffffffffffffffffffffffffffffffffffffff161415151561050e57600080fd5b8073ffffffffffffffffffffffffffffffffffffffff166000809054906101000a900473ffffffffffffffffffffffffffffffffffffffff1673ffffffffffffffffffffffffffffffffffffffff167f8be0079c531659141344cd1fd0a4f28419497f9722a3daafe3b4186f6b6457e060405160405180910390a3806000806101000a81548173ffffffffffffffffffffffffffffffffffffffff021916908373ffffffffffffffffffffffffffffffffffffffff160217905550505600a165627a7a72305820151dff79b10102de11bf23ded79422a46d300b070e420a0079e24a8becfc52260029",
  "source": "pragma solidity ^0.4.11;\n\nimport 'zeppelin-solidity/contracts/ownership/Ownable.sol';\n\ncontract Basil is Ownable {\n  uint256 public r;\n  uint256 public g;\n  uint256 public b;\n  uint256 public highestDonation;\n\n  event Withdrawal(address indexed wallet, uint256 value);\n  event NewDonation(address indexed donor, uint256 value, uint256 r, uint256 g, uint256 b);\n\n  function Basil() Ownable() public {}\n\n  function donate(uint256 _r, uint256 _g, uint256 _b) external payable {\n    require(_r < 256);\n    require(_g < 256);\n    require(_b < 256);\n    require(msg.value > highestDonation);\n\n    r = _r;\n    g = _g;\n    b = _b;\n    highestDonation = msg.value;\n    NewDonation(msg.sender, msg.value, r, g, b);\n  }\n\n  function withdraw(address wallet) public onlyOwner {\n    require(wallet != address(0));\n    uint256 value = this.balance;\n    wallet.transfer(value);\n    Withdrawal(wallet, value);\n  }\n}\n",
  "sourcePath": "/Users/facu/Documents/Laburo/Zeppelin/ZeppelinOS/basil/contracts/Basil.sol",
  "compiler": {
    "name": "solc",
    "version": "0.4.19+commit.c4cbbb05.Emscripten.clang"
  },
  "schemaVersion": "1.0.1",
  "updatedAt": "2018-02-23T17:40:14.198Z"
}