{
  "contractName": "Factory",
  "abi": [
    {
      "inputs": [
        {
          "name": "registry",
          "type": "address"
        }
      ],
      "payable": false,
      "stateMutability": "nonpayable",
      "type": "constructor"
    },
    {
      "anonymous": false,
      "inputs": [
        {
          "indexed": false,
          "name": "proxy",
          "type": "address"
        }
      ],
      "name": "ProxyCreated",
      "type": "event"
    },
    {
      "constant": true,
      "inputs": [],
      "name": "registry",
      "outputs": [
        {
          "name": "",
          "type": "address"
        }
      ],
      "payable": false,
      "stateMutability": "view",
      "type": "function"
    },
    {
      "constant": false,
      "inputs": [
        {
          "name": "version",
          "type": "string"
        }
      ],
      "name": "createProxy",
      "outputs": [
        {
          "name": "",
          "type": "address"
        }
      ],
      "payable": false,
      "stateMutability": "nonpayable",
      "type": "function"
    },
    {
      "constant": false,
      "inputs": [
        {
          "name": "version",
          "type": "string"
        },
        {
          "name": "data",
          "type": "bytes"
        }
      ],
      "name": "createProxyAndCall",
      "outputs": [
        {
          "name": "",
          "type": "address"
        }
      ],
      "payable": true,
      "stateMutability": "payable",
      "type": "function"
    }
  ],
  "bytecode": "0x6060604052341561000f57600080fd5b60405160208061146483398101604052808051906020019091905050806000806101000a81548173ffffffffffffffffffffffffffffffffffffffff021916908373ffffffffffffffffffffffffffffffffffffffff160217905550506113e98061007b6000396000f300606060405260043610610057576000357c0100000000000000000000000000000000000000000000000000000000900463ffffffff1680637b1039991461005c5780639da8e7e2146100b1578063e7b5fa161461014e575b600080fd5b341561006757600080fd5b61006f610223565b604051808273ffffffffffffffffffffffffffffffffffffffff1673ffffffffffffffffffffffffffffffffffffffff16815260200191505060405180910390f35b34156100bc57600080fd5b61010c600480803590602001908201803590602001908080601f0160208091040260200160405190810160405280939291908181526020018383808284378201915050505050509190505061024c565b604051808273ffffffffffffffffffffffffffffffffffffffff1673ffffffffffffffffffffffffffffffffffffffff16815260200191505060405180910390f35b6101e1600480803590602001908201803590602001908080601f0160208091040260200160405190810160405280939291908181526020018383808284378201915050505050509190803590602001908201803590602001908080601f016020809104026020016040519081016040528093929190818152602001838380828437820191505050505050919050506103f7565b604051808273ffffffffffffffffffffffffffffffffffffffff1673ffffffffffffffffffffffffffffffffffffffff16815260200191505060405180910390f35b60008060009054906101000a900473ffffffffffffffffffffffffffffffffffffffff16905090565b600080610257610611565b90508073ffffffffffffffffffffffffffffffffffffffff16636493e64c846040518263ffffffff167c01000000000000000000000000000000000000000000000000000000000281526004018080602001828103825283818151815260200191508051906020019080838360005b838110156102e15780820151818401526020810190506102c6565b50505050905090810190601f16801561030e5780820380516001836020036101000a031916815260200191505b5092505050600060405180830381600087803b151561032c57600080fd5b6102c65a03f1151561033d57600080fd5b5050508073ffffffffffffffffffffffffffffffffffffffff1663f1739cae336040518263ffffffff167c0100000000000000000000000000000000000000000000000000000000028152600401808273ffffffffffffffffffffffffffffffffffffffff1673ffffffffffffffffffffffffffffffffffffffff168152602001915050600060405180830381600087803b15156103da57600080fd5b6102c65a03f115156103eb57600080fd5b50505080915050919050565b600080610402610611565b90508073ffffffffffffffffffffffffffffffffffffffff1663a69605bd3486866040518463ffffffff167c0100000000000000000000000000000000000000000000000000000000028152600401808060200180602001838103835285818151815260200191508051906020019080838360005b83811015610492578082015181840152602081019050610477565b50505050905090810190601f1680156104bf5780820380516001836020036101000a031916815260200191505b50838103825284818151815260200191508051906020019080838360005b838110156104f85780820151818401526020810190506104dd565b50505050905090810190601f1680156105255780820380516001836020036101000a031916815260200191505b509450505050506000604051808303818588803b151561054457600080fd5b6125ee5a03f1151561055557600080fd5b505050508073ffffffffffffffffffffffffffffffffffffffff1663f1739cae336040518263ffffffff167c0100000000000000000000000000000000000000000000000000000000028152600401808273ffffffffffffffffffffffffffffffffffffffff1673ffffffffffffffffffffffffffffffffffffffff168152602001915050600060405180830381600087803b15156105f357600080fd5b6102c65a03f1151561060457600080fd5b5050508091505092915050565b6000806000809054906101000a900473ffffffffffffffffffffffffffffffffffffffff1661063e6106f5565b808273ffffffffffffffffffffffffffffffffffffffff1673ffffffffffffffffffffffffffffffffffffffff168152602001915050604051809103906000f080151561068a57600080fd5b90507efffc2da0b561cae30d9826d37709e9421c4725faebc226cbbb7ef5fc5e734981604051808273ffffffffffffffffffffffffffffffffffffffff1673ffffffffffffffffffffffffffffffffffffffff16815260200191505060405180910390a18091505090565b604051610cb8806107068339019056006060604052341561000f57600080fd5b604051602080610cb883398101604052808051906020019091905050808181806000806101000a81548173ffffffffffffffffffffffffffffffffffffffff021916908373ffffffffffffffffffffffffffffffffffffffff16021790555050505061008d3361009364010000000002610a95176401000000009004565b506100d7565b80600360006101000a81548173ffffffffffffffffffffffffffffffffffffffff021916908373ffffffffffffffffffffffffffffffffffffffff16021790555050565b610bd2806100e66000396000f30060606040526004361061008e576000357c0100000000000000000000000000000000000000000000000000000000900463ffffffff168063025313a21461013a57806354fd4d501461018f5780635c60da1b1461021d5780636493e64c146102725780636fde8202146102cf5780637b10399914610324578063a69605bd14610379578063f1739cae1461040e575b6000610098610ad9565b6100a0610447565b9150600073ffffffffffffffffffffffffffffffffffffffff168273ffffffffffffffffffffffffffffffffffffffff16141515156100de57600080fd5b6000368080601f0160208091040260200160405190810160405280939291908181526020018383808284378201915050505050509050600080825160208401855af43d604051816000823e8260008114610136578282f35b8282fd5b341561014557600080fd5b61014d610471565b604051808273ffffffffffffffffffffffffffffffffffffffff1673ffffffffffffffffffffffffffffffffffffffff16815260200191505060405180910390f35b341561019a57600080fd5b6101a261049b565b6040518080602001828103825283818151815260200191508051906020019080838360005b838110156101e25780820151818401526020810190506101c7565b50505050905090810190601f16801561020f5780820380516001836020036101000a031916815260200191505b509250505060405180910390f35b341561022857600080fd5b610230610447565b604051808273ffffffffffffffffffffffffffffffffffffffff1673ffffffffffffffffffffffffffffffffffffffff16815260200191505060405180910390f35b341561027d57600080fd5b6102cd600480803590602001908201803590602001908080601f01602080910402602001604051908101604052809392919081815260200183838082843782019150505050505091905050610543565b005b34156102da57600080fd5b6102e2610590565b604051808273ffffffffffffffffffffffffffffffffffffffff1673ffffffffffffffffffffffffffffffffffffffff16815260200191505060405180910390f35b341561032f57600080fd5b6103376105b6565b604051808273ffffffffffffffffffffffffffffffffffffffff1673ffffffffffffffffffffffffffffffffffffffff16815260200191505060405180910390f35b61040c600480803590602001908201803590602001908080601f0160208091040260200160405190810160405280939291908181526020018383808284378201915050505050509190803590602001908201803590602001908080601f016020809104026020016040519081016040528093929190818152602001838380828437820191505050505050919050506105df565b005b341561041957600080fd5b610445600480803573ffffffffffffffffffffffffffffffffffffffff169060200190919050506106c4565b005b6000600260009054906101000a900473ffffffffffffffffffffffffffffffffffffffff16905090565b6000600360009054906101000a900473ffffffffffffffffffffffffffffffffffffffff16905090565b6104a3610aed565b60018054600181600116156101000203166002900480601f0160208091040260200160405190810160405280929190818152602001828054600181600116156101000203166002900480156105395780601f1061050e57610100808354040283529160200191610539565b820191906000526020600020905b81548152906001019060200180831161051c57829003601f168201915b5050505050905090565b61054b610471565b73ffffffffffffffffffffffffffffffffffffffff163373ffffffffffffffffffffffffffffffffffffffff1614151561058457600080fd5b61058d816107eb565b50565b600360009054906101000a900473ffffffffffffffffffffffffffffffffffffffff1681565b60008060009054906101000a900473ffffffffffffffffffffffffffffffffffffffff16905090565b6105e7610471565b73ffffffffffffffffffffffffffffffffffffffff163373ffffffffffffffffffffffffffffffffffffffff1614151561062057600080fd5b61062982610543565b3073ffffffffffffffffffffffffffffffffffffffff16348260405180828051906020019080838360005b8381101561066f578082015181840152602081019050610654565b50505050905090810190601f16801561069c5780820380516001836020036101000a031916815260200191505b5091505060006040518083038185876187965a03f19250505015156106c057600080fd5b5050565b6106cc610471565b73ffffffffffffffffffffffffffffffffffffffff163373ffffffffffffffffffffffffffffffffffffffff1614151561070557600080fd5b600073ffffffffffffffffffffffffffffffffffffffff168173ffffffffffffffffffffffffffffffffffffffff161415151561074157600080fd5b7f5a3e66efaa1e445ebd894728a69d6959842ea1e97bd79b892797106e270efcd961076a610471565b82604051808373ffffffffffffffffffffffffffffffffffffffff1673ffffffffffffffffffffffffffffffffffffffff1681526020018273ffffffffffffffffffffffffffffffffffffffff1673ffffffffffffffffffffffffffffffffffffffff1681526020019250505060405180910390a16107e881610a95565b50565b60006107f56105b6565b73ffffffffffffffffffffffffffffffffffffffff16633ab50a9c836000604051602001526040518263ffffffff167c01000000000000000000000000000000000000000000000000000000000281526004018080602001828103825283818151815260200191508051906020019080838360005b8381101561088557808201518184015260208101905061086a565b50505050905090810190601f1680156108b25780820380516001836020036101000a031916815260200191505b5092505050602060405180830381600087803b15156108d057600080fd5b6102c65a03f115156108e157600080fd5b505050604051805190509050600073ffffffffffffffffffffffffffffffffffffffff168173ffffffffffffffffffffffffffffffffffffffff161415151561092957600080fd5b8073ffffffffffffffffffffffffffffffffffffffff16600260009054906101000a900473ffffffffffffffffffffffffffffffffffffffff1673ffffffffffffffffffffffffffffffffffffffff161415151561098657600080fd5b816001908051906020019061099c929190610b01565b5080600260006101000a81548173ffffffffffffffffffffffffffffffffffffffff021916908373ffffffffffffffffffffffffffffffffffffffff1602179055508073ffffffffffffffffffffffffffffffffffffffff167f8e05e0e35ff592971ca8b477d4285a33a61ded208d644042667b78693a472f5e836040518080602001828103825283818151815260200191508051906020019080838360005b83811015610a57578082015181840152602081019050610a3c565b50505050905090810190601f168015610a845780820380516001836020036101000a031916815260200191505b509250505060405180910390a25050565b80600360006101000a81548173ffffffffffffffffffffffffffffffffffffffff021916908373ffffffffffffffffffffffffffffffffffffffff16021790555050565b602060405190810160405280600081525090565b602060405190810160405280600081525090565b828054600181600116156101000203166002900490600052602060002090601f016020900481019282601f10610b4257805160ff1916838001178555610b70565b82800160010185558215610b70579182015b82811115610b6f578251825591602001919060010190610b54565b5b509050610b7d9190610b81565b5090565b610ba391905b80821115610b9f576000816000905550600101610b87565b5090565b905600a165627a7a72305820f177357eaa681f4a5d3f00c036d3fdb38a770f7e0180d3c2ffb3df13a43b822a0029a165627a7a72305820dc3686e650c8f1b5df03c009c72a7808387e4fed7e2b9a8f36f4d74dfb75fb430029",
  "source": "pragma solidity ^0.4.18;\n\nimport './upgradeability/OwnedUpgradeabilityProxy.sol';\nimport './Registry.sol';\n\n\n/**\n * @title Factory\n * @dev \n */\ncontract Factory {\n\n  Registry internal _registry;\n\n  function Factory(Registry registry) public {\n    _registry = registry;\n  }\n\n  /**\n  * @dev Tells the address of registry\n  * @return address of the registry\n  */\n  function registry() public view returns (Registry) {\n    return _registry;\n  }\n\n  /**\n  * @dev This event will be emitted every time a new proxy is created\n  * @param proxy representing the address of the proxy created\n  */\n  event ProxyCreated(address proxy);\n\n  /**\n  * @dev Creates an upgradeable proxy upgraded to an initial version\n  * @param version representing the first version to be set for the proxy\n  * @return address of the new proxy created\n  */\n  function createProxy(string version) public returns (OwnedUpgradeabilityProxy) {\n    OwnedUpgradeabilityProxy proxy = _createProxy();\n    proxy.upgradeTo(version);\n    proxy.transferProxyOwnership(msg.sender);\n    return proxy;\n  }\n\n  /**\n  * @dev Creates an upgradeable proxy upgraded to an initial version and call the new implementation\n  * @param version representing the first version to be set for the proxy\n  * @param data represents the msg.data to bet sent in the low level call. This parameter may include the function\n  * signature of the implementation to be called with the needed payload\n  * @return address of the new proxy created\n  */\n  function createProxyAndCall(string version, bytes data) public payable returns (OwnedUpgradeabilityProxy) {\n    OwnedUpgradeabilityProxy proxy = _createProxy();\n    proxy.upgradeToAndCall.value(msg.value)(version, data);\n    proxy.transferProxyOwnership(msg.sender);\n    return proxy;\n  }\n\n  /**\n  * @dev Internal function to create an upgradeable proxy\n  * @return address of the new proxy created\n  */\n  function _createProxy() internal returns (OwnedUpgradeabilityProxy) {\n    OwnedUpgradeabilityProxy proxy = new OwnedUpgradeabilityProxy(_registry);\n    ProxyCreated(proxy);\n    return proxy;\n  }\n}\n",
  "sourcePath": "zos-core/contracts/Factory.sol",
  "compiler": {
    "name": "solc",
    "version": "0.4.19+commit.c4cbbb05.Emscripten.clang"
  },
  "schemaVersion": "2.0.0",
  "updatedAt": "2018-03-27T18:38:30.065Z"
}