{
  "contractName": "OwnedUpgradeableBasilStorage",
  "abi": [
    {
      "constant": true,
      "inputs": [],
      "name": "highestDonation",
      "outputs": [
        {
          "name": "",
          "type": "uint256"
        }
      ],
      "payable": false,
      "stateMutability": "view",
      "type": "function"
    },
    {
      "constant": true,
      "inputs": [],
      "name": "initialized",
      "outputs": [
        {
          "name": "",
          "type": "bool"
        }
      ],
      "payable": false,
      "stateMutability": "view",
      "type": "function"
    },
    {
      "constant": true,
      "inputs": [],
      "name": "b",
      "outputs": [
        {
          "name": "",
          "type": "uint256"
        }
      ],
      "payable": false,
      "stateMutability": "view",
      "type": "function"
    },
    {
      "constant": true,
      "inputs": [],
      "name": "version",
      "outputs": [
        {
          "name": "",
          "type": "string"
        }
      ],
      "payable": false,
      "stateMutability": "view",
      "type": "function"
    },
    {
      "constant": true,
      "inputs": [],
      "name": "implementation",
      "outputs": [
        {
          "name": "",
          "type": "address"
        }
      ],
      "payable": false,
      "stateMutability": "view",
      "type": "function"
    },
    {
      "constant": true,
      "inputs": [],
      "name": "r",
      "outputs": [
        {
          "name": "",
          "type": "uint256"
        }
      ],
      "payable": false,
      "stateMutability": "view",
      "type": "function"
    },
    {
      "constant": true,
      "inputs": [],
      "name": "upgradeabilityOwner",
      "outputs": [
        {
          "name": "",
          "type": "address"
        }
      ],
      "payable": false,
      "stateMutability": "view",
      "type": "function"
    },
    {
      "constant": true,
      "inputs": [],
      "name": "registry",
      "outputs": [
        {
          "name": "",
          "type": "address"
        }
      ],
      "payable": false,
      "stateMutability": "view",
      "type": "function"
    },
    {
      "constant": true,
      "inputs": [],
      "name": "g",
      "outputs": [
        {
          "name": "",
          "type": "uint256"
        }
      ],
      "payable": false,
      "stateMutability": "view",
      "type": "function"
    },
    {
      "inputs": [],
      "payable": false,
      "stateMutability": "nonpayable",
      "type": "constructor"
    }
  ],
  "bytecode": "0x6060604052341561000f57600080fd5b600080806000806101000a81548173ffffffffffffffffffffffffffffffffffffffff021916908373ffffffffffffffffffffffffffffffffffffffff1602179055505050610488806100636000396000f300606060405260043610610099576000357c0100000000000000000000000000000000000000000000000000000000900463ffffffff168063043f08e71461009e578063158ef93e146100c75780634df7e3d0146100f457806354fd4d501461011d5780635c60da1b146101ab5780636c8ae38c146102005780636fde8202146102295780637b1039991461027e578063e2179b8e146102d3575b600080fd5b34156100a957600080fd5b6100b16102fc565b6040518082815260200191505060405180910390f35b34156100d257600080fd5b6100da610302565b604051808215151515815260200191505060405180910390f35b34156100ff57600080fd5b610107610315565b6040518082815260200191505060405180910390f35b341561012857600080fd5b61013061031b565b6040518080602001828103825283818151815260200191508051906020019080838360005b83811015610170578082015181840152602081019050610155565b50505050905090810190601f16801561019d5780820380516001836020036101000a031916815260200191505b509250505060405180910390f35b34156101b657600080fd5b6101be6103c3565b604051808273ffffffffffffffffffffffffffffffffffffffff1673ffffffffffffffffffffffffffffffffffffffff16815260200191505060405180910390f35b341561020b57600080fd5b6102136103ed565b6040518082815260200191505060405180910390f35b341561023457600080fd5b61023c6103f3565b604051808273ffffffffffffffffffffffffffffffffffffffff1673ffffffffffffffffffffffffffffffffffffffff16815260200191505060405180910390f35b341561028957600080fd5b610291610419565b604051808273ffffffffffffffffffffffffffffffffffffffff1673ffffffffffffffffffffffffffffffffffffffff16815260200191505060405180910390f35b34156102de57600080fd5b6102e6610442565b6040518082815260200191505060405180910390f35b60085481565b600760009054906101000a900460ff1681565b60065481565b610323610448565b60018054600181600116156101000203166002900480601f0160208091040260200160405190810160405280929190818152602001828054600181600116156101000203166002900480156103b95780601f1061038e576101008083540402835291602001916103b9565b820191906000526020600020905b81548152906001019060200180831161039c57829003601f168201915b5050505050905090565b6000600260009054906101000a900473ffffffffffffffffffffffffffffffffffffffff16905090565b60045481565b600360009054906101000a900473ffffffffffffffffffffffffffffffffffffffff1681565b60008060009054906101000a900473ffffffffffffffffffffffffffffffffffffffff16905090565b60055481565b6020604051908101604052806000815250905600a165627a7a723058208fb1996ae4644a8553ea8fda57560cb79604d5c22d8d26fe94fe4fbfc72a36c40029",
  "source": "pragma solidity ^0.4.18;\n\nimport './BasilStorage.sol';\nimport 'zos-core/contracts/upgradeability/OwnedUpgradeabilityStorage.sol';\nimport 'zos-core/contracts/Registry.sol';\n\n/**\n * @title OwnedUpgradeableBasilStorage\n * @dev This is the storage necessary to perform upgradeable basils.\n * This means, required state variables for owned upgradeability purpose and those strictly related to basil contracts.\n */\ncontract OwnedUpgradeableBasilStorage is OwnedUpgradeabilityStorage, BasilStorage {\n\n  function OwnedUpgradeableBasilStorage()\n    BasilStorage()\n    OwnedUpgradeabilityStorage(Registry(0x0))\n    public\n  {}\n\n}\n",
  "sourcePath": "/home/maraoz/git/zos/basil/contracts/OwnedUpgradeableBasilStorage.sol",
  "compiler": {
    "name": "solc",
    "version": "0.4.19+commit.c4cbbb05.Emscripten.clang"
  },
  "schemaVersion": "2.0.0",
  "updatedAt": "2018-03-09T16:10:18.090Z"
}