{
  "contractName": "OwnedUpgradeableBasilStorage",
  "abi": [
    {
      "constant": true,
      "inputs": [],
      "name": "highestDonation",
      "outputs": [
        {
          "name": "",
          "type": "uint256"
        }
      ],
      "payable": false,
      "stateMutability": "view",
      "type": "function"
    },
    {
      "constant": true,
      "inputs": [],
      "name": "b",
      "outputs": [
        {
          "name": "",
          "type": "uint256"
        }
      ],
      "payable": false,
      "stateMutability": "view",
      "type": "function"
    },
    {
      "constant": true,
      "inputs": [],
      "name": "version",
      "outputs": [
        {
          "name": "",
          "type": "string"
        }
      ],
      "payable": false,
      "stateMutability": "view",
      "type": "function"
    },
    {
      "constant": true,
      "inputs": [],
      "name": "implementation",
      "outputs": [
        {
          "name": "",
          "type": "address"
        }
      ],
      "payable": false,
      "stateMutability": "view",
      "type": "function"
    },
    {
      "constant": true,
      "inputs": [],
      "name": "r",
      "outputs": [
        {
          "name": "",
          "type": "uint256"
        }
      ],
      "payable": false,
      "stateMutability": "view",
      "type": "function"
    },
    {
      "constant": true,
      "inputs": [],
      "name": "upgradeabilityOwner",
      "outputs": [
        {
          "name": "",
          "type": "address"
        }
      ],
      "payable": false,
      "stateMutability": "view",
      "type": "function"
    },
    {
      "constant": true,
      "inputs": [],
      "name": "registry",
      "outputs": [
        {
          "name": "",
          "type": "address"
        }
      ],
      "payable": false,
      "stateMutability": "view",
      "type": "function"
    },
    {
      "constant": true,
      "inputs": [],
      "name": "owner",
      "outputs": [
        {
          "name": "",
          "type": "address"
        }
      ],
      "payable": false,
      "stateMutability": "view",
      "type": "function"
    },
    {
      "constant": true,
      "inputs": [],
      "name": "g",
      "outputs": [
        {
          "name": "",
          "type": "uint256"
        }
      ],
      "payable": false,
      "stateMutability": "view",
      "type": "function"
    }
  ],
  "bytecode": "0x6060604052336000806101000a81548173ffffffffffffffffffffffffffffffffffffffff021916908373ffffffffffffffffffffffffffffffffffffffff1602179055506104cb806100536000396000f300606060405260043610610099576000357c0100000000000000000000000000000000000000000000000000000000900463ffffffff168063043f08e71461009e5780634df7e3d0146100c757806354fd4d50146100f05780635c60da1b1461017e5780636c8ae38c146101d35780636fde8202146101fc5780637b103999146102515780638da5cb5b146102a6578063e2179b8e146102fb575b600080fd5b34156100a957600080fd5b6100b1610324565b6040518082815260200191505060405180910390f35b34156100d257600080fd5b6100da61032a565b6040518082815260200191505060405180910390f35b34156100fb57600080fd5b610103610330565b6040518080602001828103825283818151815260200191508051906020019080838360005b83811015610143578082015181840152602081019050610128565b50505050905090810190601f1680156101705780820380516001836020036101000a031916815260200191505b509250505060405180910390f35b341561018957600080fd5b6101916103d8565b604051808273ffffffffffffffffffffffffffffffffffffffff1673ffffffffffffffffffffffffffffffffffffffff16815260200191505060405180910390f35b34156101de57600080fd5b6101e6610402565b6040518082815260200191505060405180910390f35b341561020757600080fd5b61020f610408565b604051808273ffffffffffffffffffffffffffffffffffffffff1673ffffffffffffffffffffffffffffffffffffffff16815260200191505060405180910390f35b341561025c57600080fd5b610264610432565b604051808273ffffffffffffffffffffffffffffffffffffffff1673ffffffffffffffffffffffffffffffffffffffff16815260200191505060405180910390f35b34156102b157600080fd5b6102b961045b565b604051808273ffffffffffffffffffffffffffffffffffffffff1673ffffffffffffffffffffffffffffffffffffffff16815260200191505060405180910390f35b341561030657600080fd5b61030e610485565b6040518082815260200191505060405180910390f35b60095481565b60075481565b61033861048b565b60018054600181600116156101000203166002900480601f0160208091040260200160405190810160405280929190818152602001828054600181600116156101000203166002900480156103ce5780601f106103a3576101008083540402835291602001916103ce565b820191906000526020600020905b8154815290600101906020018083116103b157829003601f168201915b5050505050905090565b6000600260009054906101000a900473ffffffffffffffffffffffffffffffffffffffff16905090565b60055481565b6000600360009054906101000a900473ffffffffffffffffffffffffffffffffffffffff16905090565b60008060009054906101000a900473ffffffffffffffffffffffffffffffffffffffff16905090565b6000600460009054906101000a900473ffffffffffffffffffffffffffffffffffffffff16905090565b60065481565b6020604051908101604052806000815250905600a165627a7a7230582038cd071551c65ea96d55afe177e7b7f349b2af8a30537a6958d45f9d8222b9f50029",
  "source": "pragma solidity ^0.4.18;\n\nimport './BasilStorage.sol';\nimport 'zos-core/contracts/upgradeability/OwnedUpgradeabilityStorage.sol';\n\n/**\n * @title OwnedUpgradeableBasilStorage\n * @dev This is the storage necessary to perform upgradeable basils.\n * This means, required state variables for owned upgradeability purpose and those strictly related to basil contracts.\n */\ncontract OwnedUpgradeableBasilStorage is OwnedUpgradeabilityStorage, BasilStorage {}\n",
  "sourcePath": "/home/maraoz/git/zos/basil/contracts/OwnedUpgradeableBasilStorage.sol",
  "compiler": {
    "name": "solc",
    "version": "0.4.19+commit.c4cbbb05.Emscripten.clang"
  },
  "schemaVersion": "2.0.0",
  "updatedAt": "2018-03-02T21:33:46.047Z"
}