{
  "contractName": "Registry",
  "abi": [
    {
      "anonymous": false,
      "inputs": [
        {
          "indexed": false,
          "name": "proxy",
          "type": "address"
        }
      ],
      "name": "ProxyCreated",
      "type": "event"
    },
    {
      "anonymous": false,
      "inputs": [
        {
          "indexed": false,
          "name": "version",
          "type": "string"
        },
        {
          "indexed": false,
          "name": "implementation",
          "type": "address"
        }
      ],
      "name": "VersionAdded",
      "type": "event"
    },
    {
      "constant": false,
      "inputs": [
        {
          "name": "version",
          "type": "string"
        },
        {
          "name": "implementation",
          "type": "address"
        }
      ],
      "name": "addVersion",
      "outputs": [],
      "payable": false,
      "stateMutability": "nonpayable",
      "type": "function"
    },
    {
      "constant": true,
      "inputs": [
        {
          "name": "version",
          "type": "string"
        }
      ],
      "name": "getVersion",
      "outputs": [
        {
          "name": "",
          "type": "address"
        }
      ],
      "payable": false,
      "stateMutability": "view",
      "type": "function"
    },
    {
      "constant": false,
      "inputs": [
        {
          "name": "version",
          "type": "string"
        }
      ],
      "name": "createProxy",
      "outputs": [
        {
          "name": "",
          "type": "address"
        }
      ],
      "payable": false,
      "stateMutability": "nonpayable",
      "type": "function"
    },
    {
      "constant": false,
      "inputs": [
        {
          "name": "version",
          "type": "string"
        },
        {
          "name": "data",
          "type": "bytes"
        }
      ],
      "name": "createProxyAndCall",
      "outputs": [
        {
          "name": "",
          "type": "address"
        }
      ],
      "payable": true,
      "stateMutability": "payable",
      "type": "function"
    }
  ],
  "bytecode": "0x6060604052341561000f57600080fd5b6117118061001e6000396000f300606060405260043610610062576000357c0100000000000000000000000000000000000000000000000000000000900463ffffffff1680632200919f146100675780633ab50a9c146100e35780639da8e7e214610180578063e7b5fa161461021d575b600080fd5b341561007257600080fd5b6100e1600480803590602001908201803590602001908080601f0160208091040260200160405190810160405280939291908181526020018383808284378201915050505050509190803573ffffffffffffffffffffffffffffffffffffffff169060200190919050506102f2565b005b34156100ee57600080fd5b61013e600480803590602001908201803590602001908080601f01602080910402602001604051908101604052809392919081815260200183838082843782019150505050505091905050610572565b604051808273ffffffffffffffffffffffffffffffffffffffff1673ffffffffffffffffffffffffffffffffffffffff16815260200191505060405180910390f35b341561018b57600080fd5b6101db600480803590602001908201803590602001908080601f01602080910402602001604051908101604052809392919081815260200183838082843782019150505050505091905050610606565b604051808273ffffffffffffffffffffffffffffffffffffffff1673ffffffffffffffffffffffffffffffffffffffff16815260200191505060405180910390f35b6102b0600480803590602001908201803590602001908080601f0160208091040260200160405190810160405280939291908181526020018383808284378201915050505050509190803590602001908201803590602001908080601f016020809104026020016040519081016040528093929190818152602001838380828437820191505050505050919050506107b1565b604051808273ffffffffffffffffffffffffffffffffffffffff1673ffffffffffffffffffffffffffffffffffffffff16815260200191505060405180910390f35b600073ffffffffffffffffffffffffffffffffffffffff166000836040518082805190602001908083835b602083101515610342578051825260208201915060208101905060208303925061031d565b6001836020036101000a038019825116818451168082178552505050505050905001915050908152602001604051809103902060009054906101000a900473ffffffffffffffffffffffffffffffffffffffff1673ffffffffffffffffffffffffffffffffffffffff161415156103b857600080fd5b600073ffffffffffffffffffffffffffffffffffffffff168173ffffffffffffffffffffffffffffffffffffffff16141515156103f457600080fd5b806000836040518082805190602001908083835b60208310151561042d5780518252602082019150602081019050602083039250610408565b6001836020036101000a038019825116818451168082178552505050505050905001915050908152602001604051809103902060006101000a81548173ffffffffffffffffffffffffffffffffffffffff021916908373ffffffffffffffffffffffffffffffffffffffff1602179055507fe2a08c9e50f4a219841f60ac40fa9d1f2cccb83ac2d3439c8c568fdf1f7c19e4828260405180806020018373ffffffffffffffffffffffffffffffffffffffff1673ffffffffffffffffffffffffffffffffffffffff168152602001828103825284818151815260200191508051906020019080838360005b83811015610533578082015181840152602081019050610518565b50505050905090810190601f1680156105605780820380516001836020036101000a031916815260200191505b50935050505060405180910390a15050565b600080826040518082805190602001908083835b6020831015156105ab5780518252602082019150602081019050602083039250610586565b6001836020036101000a038019825116818451168082178552505050505050905001915050908152602001604051809103902060009054906101000a900473ffffffffffffffffffffffffffffffffffffffff169050919050565b6000806106116109cb565b90508073ffffffffffffffffffffffffffffffffffffffff16636493e64c846040518263ffffffff167c01000000000000000000000000000000000000000000000000000000000281526004018080602001828103825283818151815260200191508051906020019080838360005b8381101561069b578082015181840152602081019050610680565b50505050905090810190601f1680156106c85780820380516001836020036101000a031916815260200191505b5092505050600060405180830381600087803b15156106e657600080fd5b6102c65a03f115156106f757600080fd5b5050508073ffffffffffffffffffffffffffffffffffffffff1663f1739cae336040518263ffffffff167c0100000000000000000000000000000000000000000000000000000000028152600401808273ffffffffffffffffffffffffffffffffffffffff1673ffffffffffffffffffffffffffffffffffffffff168152602001915050600060405180830381600087803b151561079457600080fd5b6102c65a03f115156107a557600080fd5b50505080915050919050565b6000806107bc6109cb565b90508073ffffffffffffffffffffffffffffffffffffffff1663a69605bd3486866040518463ffffffff167c0100000000000000000000000000000000000000000000000000000000028152600401808060200180602001838103835285818151815260200191508051906020019080838360005b8381101561084c578082015181840152602081019050610831565b50505050905090810190601f1680156108795780820380516001836020036101000a031916815260200191505b50838103825284818151815260200191508051906020019080838360005b838110156108b2578082015181840152602081019050610897565b50505050905090810190601f1680156108df5780820380516001836020036101000a031916815260200191505b509450505050506000604051808303818588803b15156108fe57600080fd5b6125ee5a03f1151561090f57600080fd5b505050508073ffffffffffffffffffffffffffffffffffffffff1663f1739cae336040518263ffffffff167c0100000000000000000000000000000000000000000000000000000000028152600401808273ffffffffffffffffffffffffffffffffffffffff1673ffffffffffffffffffffffffffffffffffffffff168152602001915050600060405180830381600087803b15156109ad57600080fd5b6102c65a03f115156109be57600080fd5b5050508091505092915050565b6000806109d6610a57565b604051809103906000f08015156109ec57600080fd5b90507efffc2da0b561cae30d9826d37709e9421c4725faebc226cbbb7ef5fc5e734981604051808273ffffffffffffffffffffffffffffffffffffffff1673ffffffffffffffffffffffffffffffffffffffff16815260200191505060405180910390a18091505090565b604051610c7e80610a688339019056006060604052341561000f57600080fd5b336000806101000a81548173ffffffffffffffffffffffffffffffffffffffff021916908373ffffffffffffffffffffffffffffffffffffffff16021790555061006b3361007064010000000002610a7e176401000000009004565b6100b4565b80600360006101000a81548173ffffffffffffffffffffffffffffffffffffffff021916908373ffffffffffffffffffffffffffffffffffffffff16021790555050565b610bbb806100c36000396000f30060606040526004361061008e576000357c0100000000000000000000000000000000000000000000000000000000900463ffffffff168063025313a21461013a57806354fd4d501461018f5780635c60da1b1461021d5780636493e64c146102725780636fde8202146102cf5780637b10399914610324578063a69605bd14610379578063f1739cae1461040e575b6000610098610ac2565b6100a0610447565b9150600073ffffffffffffffffffffffffffffffffffffffff168273ffffffffffffffffffffffffffffffffffffffff16141515156100de57600080fd5b6000368080601f0160208091040260200160405190810160405280939291908181526020018383808284378201915050505050509050600080825160208401855af43d604051816000823e8260008114610136578282f35b8282fd5b341561014557600080fd5b61014d610471565b604051808273ffffffffffffffffffffffffffffffffffffffff1673ffffffffffffffffffffffffffffffffffffffff16815260200191505060405180910390f35b341561019a57600080fd5b6101a2610480565b6040518080602001828103825283818151815260200191508051906020019080838360005b838110156101e25780820151818401526020810190506101c7565b50505050905090810190601f16801561020f5780820380516001836020036101000a031916815260200191505b509250505060405180910390f35b341561022857600080fd5b610230610447565b604051808273ffffffffffffffffffffffffffffffffffffffff1673ffffffffffffffffffffffffffffffffffffffff16815260200191505060405180910390f35b341561027d57600080fd5b6102cd600480803590602001908201803590602001908080601f01602080910402602001604051908101604052809392919081815260200183838082843782019150505050505091905050610528565b005b34156102da57600080fd5b6102e2610575565b604051808273ffffffffffffffffffffffffffffffffffffffff1673ffffffffffffffffffffffffffffffffffffffff16815260200191505060405180910390f35b341561032f57600080fd5b61033761059f565b604051808273ffffffffffffffffffffffffffffffffffffffff1673ffffffffffffffffffffffffffffffffffffffff16815260200191505060405180910390f35b61040c600480803590602001908201803590602001908080601f0160208091040260200160405190810160405280939291908181526020018383808284378201915050505050509190803590602001908201803590602001908080601f016020809104026020016040519081016040528093929190818152602001838380828437820191505050505050919050506105c8565b005b341561041957600080fd5b610445600480803573ffffffffffffffffffffffffffffffffffffffff169060200190919050506106ad565b005b6000600260009054906101000a900473ffffffffffffffffffffffffffffffffffffffff16905090565b600061047b610575565b905090565b610488610ad6565b60018054600181600116156101000203166002900480601f01602080910402602001604051908101604052809291908181526020018280546001816001161561010002031660029004801561051e5780601f106104f35761010080835404028352916020019161051e565b820191906000526020600020905b81548152906001019060200180831161050157829003601f168201915b5050505050905090565b610530610471565b73ffffffffffffffffffffffffffffffffffffffff163373ffffffffffffffffffffffffffffffffffffffff1614151561056957600080fd5b610572816107d4565b50565b6000600360009054906101000a900473ffffffffffffffffffffffffffffffffffffffff16905090565b60008060009054906101000a900473ffffffffffffffffffffffffffffffffffffffff16905090565b6105d0610471565b73ffffffffffffffffffffffffffffffffffffffff163373ffffffffffffffffffffffffffffffffffffffff1614151561060957600080fd5b61061282610528565b3073ffffffffffffffffffffffffffffffffffffffff16348260405180828051906020019080838360005b8381101561065857808201518184015260208101905061063d565b50505050905090810190601f1680156106855780820380516001836020036101000a031916815260200191505b5091505060006040518083038185876187965a03f19250505015156106a957600080fd5b5050565b6106b5610471565b73ffffffffffffffffffffffffffffffffffffffff163373ffffffffffffffffffffffffffffffffffffffff161415156106ee57600080fd5b600073ffffffffffffffffffffffffffffffffffffffff168173ffffffffffffffffffffffffffffffffffffffff161415151561072a57600080fd5b7f5a3e66efaa1e445ebd894728a69d6959842ea1e97bd79b892797106e270efcd9610753610471565b82604051808373ffffffffffffffffffffffffffffffffffffffff1673ffffffffffffffffffffffffffffffffffffffff1681526020018273ffffffffffffffffffffffffffffffffffffffff1673ffffffffffffffffffffffffffffffffffffffff1681526020019250505060405180910390a16107d181610a7e565b50565b60006107de61059f565b73ffffffffffffffffffffffffffffffffffffffff16633ab50a9c836000604051602001526040518263ffffffff167c01000000000000000000000000000000000000000000000000000000000281526004018080602001828103825283818151815260200191508051906020019080838360005b8381101561086e578082015181840152602081019050610853565b50505050905090810190601f16801561089b5780820380516001836020036101000a031916815260200191505b5092505050602060405180830381600087803b15156108b957600080fd5b6102c65a03f115156108ca57600080fd5b505050604051805190509050600073ffffffffffffffffffffffffffffffffffffffff168173ffffffffffffffffffffffffffffffffffffffff161415151561091257600080fd5b8073ffffffffffffffffffffffffffffffffffffffff16600260009054906101000a900473ffffffffffffffffffffffffffffffffffffffff1673ffffffffffffffffffffffffffffffffffffffff161415151561096f57600080fd5b8160019080519060200190610985929190610aea565b5080600260006101000a81548173ffffffffffffffffffffffffffffffffffffffff021916908373ffffffffffffffffffffffffffffffffffffffff1602179055508073ffffffffffffffffffffffffffffffffffffffff167f8e05e0e35ff592971ca8b477d4285a33a61ded208d644042667b78693a472f5e836040518080602001828103825283818151815260200191508051906020019080838360005b83811015610a40578082015181840152602081019050610a25565b50505050905090810190601f168015610a6d5780820380516001836020036101000a031916815260200191505b509250505060405180910390a25050565b80600360006101000a81548173ffffffffffffffffffffffffffffffffffffffff021916908373ffffffffffffffffffffffffffffffffffffffff16021790555050565b602060405190810160405280600081525090565b602060405190810160405280600081525090565b828054600181600116156101000203166002900490600052602060002090601f016020900481019282601f10610b2b57805160ff1916838001178555610b59565b82800160010185558215610b59579182015b82811115610b58578251825591602001919060010190610b3d565b5b509050610b669190610b6a565b5090565b610b8c91905b80821115610b88576000816000905550600101610b70565b5090565b905600a165627a7a723058207c391c5362b78cf5dc76f98082d77741f36dd10eb66cd56632b73658c7af84160029a165627a7a72305820c22fa399f2a61e4bbf9b62fe5dc079dfb69e03ebab35fe612a1632ed5b73b83c0029",
  "source": "pragma solidity ^0.4.18;\n\nimport './IRegistry.sol';\nimport '../upgradeability/OwnedUpgradeabilityProxy.sol';\n\n\n/**\n * @title Registry\n * @dev This contract works as a registry of versions, it holds the implementations for the registered versions.\n */\ncontract Registry is IRegistry {\n  // Mapping of versions to implementations of different functions\n  mapping (string => address) private versions;\n\n  /**\n  * @dev Registers a new version with its implementation address\n  * @param version representing the version name of the new implementation to be registered\n  * @param implementation representing the address of the new implementation to be registered\n  */\n  function addVersion(string version, address implementation) public {\n    require(versions[version] == address(0));\n    require(implementation != address(0));\n    versions[version] = implementation;\n    VersionAdded(version, implementation);\n  }\n\n  /**\n  * @dev Tells the address of the implementation for a given version\n  * @param version to query the implementation of\n  * @return address of the implementation registered for the given version\n  */\n  function getVersion(string version) public view returns (address) {\n    return versions[version];\n  }\n\n  /**\n  * @dev Creates an upgradeable proxy upgraded to an initial version\n  * @param version representing the first version to be set for the proxy\n  * @return address of the new proxy created\n  */\n  function createProxy(string version) public returns (Proxy) {\n    OwnedUpgradeabilityProxy proxy = _createProxy();\n    proxy.upgradeTo(version);\n    proxy.transferProxyOwnership(msg.sender);\n    return proxy;\n  }\n\n  /**\n  * @dev Creates an upgradeable proxy upgraded to an initial version and call the new implementation\n  * @param version representing the first version to be set for the proxy\n  * @param data represents the msg.data to bet sent in the low level call. This parameter may include the function\n  * signature of the implementation to be called with the needed payload\n  * @return address of the new proxy created\n  */\n  function createProxyAndCall(string version, bytes data) public payable returns (Proxy) {\n    OwnedUpgradeabilityProxy proxy = _createProxy();\n    proxy.upgradeToAndCall.value(msg.value)(version, data);\n    proxy.transferProxyOwnership(msg.sender);\n    return proxy;\n  }\n\n  /**\n  * @dev Internal function to create an upgradeable proxy\n  * @return address of the new proxy created\n  */\n  function _createProxy() internal returns (OwnedUpgradeabilityProxy) {\n    OwnedUpgradeabilityProxy proxy = new OwnedUpgradeabilityProxy();\n    ProxyCreated(proxy);\n    return proxy;\n  }\n}\n",
  "sourcePath": "zos-core/contracts/registry/Registry.sol",
  "compiler": {
    "name": "solc",
    "version": "0.4.19+commit.c4cbbb05.Emscripten.clang"
  },
  "schemaVersion": "2.0.0",
  "updatedAt": "2018-03-02T21:33:46.048Z"
}