{
  "contractName": "Registry",
  "abi": [
    {
      "anonymous": false,
      "inputs": [
        {
          "indexed": false,
          "name": "version",
          "type": "string"
        },
        {
          "indexed": false,
          "name": "implementation",
          "type": "address"
        }
      ],
      "name": "VersionAdded",
      "type": "event"
    },
    {
      "constant": false,
      "inputs": [
        {
          "name": "version",
          "type": "string"
        },
        {
          "name": "implementation",
          "type": "address"
        }
      ],
      "name": "addVersion",
      "outputs": [],
      "payable": false,
      "stateMutability": "nonpayable",
      "type": "function"
    },
    {
      "constant": true,
      "inputs": [
        {
          "name": "version",
          "type": "string"
        }
      ],
      "name": "getVersion",
      "outputs": [
        {
          "name": "",
          "type": "address"
        }
      ],
      "payable": false,
      "stateMutability": "view",
      "type": "function"
    }
  ],
  "bytecode": "0x6060604052341561000f57600080fd5b6104aa8061001e6000396000f30060606040526004361061004c576000357c0100000000000000000000000000000000000000000000000000000000900463ffffffff1680632200919f146100515780633ab50a9c146100cd575b600080fd5b341561005c57600080fd5b6100cb600480803590602001908201803590602001908080601f0160208091040260200160405190810160405280939291908181526020018383808284378201915050505050509190803573ffffffffffffffffffffffffffffffffffffffff1690602001909190505061016a565b005b34156100d857600080fd5b610128600480803590602001908201803590602001908080601f016020809104026020016040519081016040528093929190818152602001838380828437820191505050505050919050506103ea565b604051808273ffffffffffffffffffffffffffffffffffffffff1673ffffffffffffffffffffffffffffffffffffffff16815260200191505060405180910390f35b600073ffffffffffffffffffffffffffffffffffffffff166000836040518082805190602001908083835b6020831015156101ba5780518252602082019150602081019050602083039250610195565b6001836020036101000a038019825116818451168082178552505050505050905001915050908152602001604051809103902060009054906101000a900473ffffffffffffffffffffffffffffffffffffffff1673ffffffffffffffffffffffffffffffffffffffff1614151561023057600080fd5b600073ffffffffffffffffffffffffffffffffffffffff168173ffffffffffffffffffffffffffffffffffffffff161415151561026c57600080fd5b806000836040518082805190602001908083835b6020831015156102a55780518252602082019150602081019050602083039250610280565b6001836020036101000a038019825116818451168082178552505050505050905001915050908152602001604051809103902060006101000a81548173ffffffffffffffffffffffffffffffffffffffff021916908373ffffffffffffffffffffffffffffffffffffffff1602179055507fe2a08c9e50f4a219841f60ac40fa9d1f2cccb83ac2d3439c8c568fdf1f7c19e4828260405180806020018373ffffffffffffffffffffffffffffffffffffffff1673ffffffffffffffffffffffffffffffffffffffff168152602001828103825284818151815260200191508051906020019080838360005b838110156103ab578082015181840152602081019050610390565b50505050905090810190601f1680156103d85780820380516001836020036101000a031916815260200191505b50935050505060405180910390a15050565b600080826040518082805190602001908083835b60208310151561042357805182526020820191506020810190506020830392506103fe565b6001836020036101000a038019825116818451168082178552505050505050905001915050908152602001604051809103902060009054906101000a900473ffffffffffffffffffffffffffffffffffffffff1690509190505600a165627a7a723058201583f0208036904c72b000d9fca6e22d3421ce9dc6e0744fe22540c01e10d4da0029",
  "source": "pragma solidity ^0.4.18;\n\n\n/**\n * @title Registry\n * @dev This contract works as a registry of versions, it holds the implementations for the registered versions.\n */\ncontract Registry {\n  /**\n  * @dev This event will be emitted every time a new implementation is registered\n  * @param version representing the version name of the registered implementation\n  * @param implementation representing the address of the registered implementation\n  */\n  event VersionAdded(string version, address implementation);\n\n\n  // Mapping of versions to implementations of different functions\n  mapping (string => address) internal versions;\n\n  /**\n  * @dev Registers a new version with its implementation address\n  * @param version representing the version name of the new implementation to be registered\n  * @param implementation representing the address of the new implementation to be registered\n  */\n  function addVersion(string version, address implementation) public {\n    require(versions[version] == address(0));\n    require(implementation != address(0));\n    versions[version] = implementation;\n    VersionAdded(version, implementation);\n  }\n\n  /**\n  * @dev Tells the address of the implementation for a given version\n  * @param version to query the implementation of\n  * @return address of the implementation registered for the given version\n  */\n  function getVersion(string version) public view returns (address) {\n    return versions[version];\n  }\n}\n",
  "sourcePath": "zos-core/contracts/Registry.sol",
  "compiler": {
    "name": "solc",
    "version": "0.4.19+commit.c4cbbb05.Emscripten.clang"
  },
  "schemaVersion": "2.0.0",
  "updatedAt": "2018-03-09T16:41:23.118Z"
}