{
  "contractName": "UpgradeabilityProxy",
  "abi": [
    {
      "constant": true,
      "inputs": [],
      "name": "version",
      "outputs": [
        {
          "name": "",
          "type": "string"
        }
      ],
      "payable": false,
      "stateMutability": "view",
      "type": "function"
    },
    {
      "constant": true,
      "inputs": [],
      "name": "implementation",
      "outputs": [
        {
          "name": "",
          "type": "address"
        }
      ],
      "payable": false,
      "stateMutability": "view",
      "type": "function"
    },
    {
      "payable": true,
      "stateMutability": "payable",
      "type": "fallback"
    },
    {
      "anonymous": false,
      "inputs": [
        {
          "indexed": false,
          "name": "version",
          "type": "string"
        },
        {
          "indexed": true,
          "name": "implementation",
          "type": "address"
        }
      ],
      "name": "Upgraded",
      "type": "event"
    }
  ],
  "bytecode": "0x6060604052341561000f57600080fd5b6103018061001e6000396000f30060606040526004361061004c576000357c0100000000000000000000000000000000000000000000000000000000900463ffffffff16806354fd4d50146100f85780635c60da1b14610186575b60006100566102ad565b61005e6101db565b9150600073ffffffffffffffffffffffffffffffffffffffff168273ffffffffffffffffffffffffffffffffffffffff161415151561009c57600080fd5b6000368080601f0160208091040260200160405190810160405280939291908181526020018383808284378201915050505050509050600080825160208401855af43d604051816000823e82600081146100f4578282f35b8282fd5b341561010357600080fd5b61010b610205565b6040518080602001828103825283818151815260200191508051906020019080838360005b8381101561014b578082015181840152602081019050610130565b50505050905090810190601f1680156101785780820380516001836020036101000a031916815260200191505b509250505060405180910390f35b341561019157600080fd5b6101996101db565b604051808273ffffffffffffffffffffffffffffffffffffffff1673ffffffffffffffffffffffffffffffffffffffff16815260200191505060405180910390f35b6000600160009054906101000a900473ffffffffffffffffffffffffffffffffffffffff16905090565b61020d6102c1565b60008054600181600116156101000203166002900480601f0160208091040260200160405190810160405280929190818152602001828054600181600116156101000203166002900480156102a35780601f10610278576101008083540402835291602001916102a3565b820191906000526020600020905b81548152906001019060200180831161028657829003601f168201915b5050505050905090565b602060405190810160405280600081525090565b6020604051908101604052806000815250905600a165627a7a72305820adae60be0c1c7de37c82ac738a5e46c34c3e889cf805d3464120c5fc571201850029",
  "source": "pragma solidity ^0.4.18;\n\nimport './Proxy.sol';\nimport './UpgradeabilityStorage.sol';\n\n/**\n * @title UpgradeabilityProxy\n * @dev This contract represents a proxy where the implementation address to which it will delegate can be upgraded\n */\ncontract UpgradeabilityProxy is Proxy, UpgradeabilityStorage {\n  /**\n  * @dev This event will be emitted every time the implementation gets upgraded\n  * @param version representing the version name of the upgraded implementation\n  * @param implementation representing the address of the upgraded implementation\n  */\n  event Upgraded(string version, address indexed implementation);\n\n  /**\n  * @dev Upgrades the implementation address\n  * @param version representing the version name of the new implementation to be set\n  * @param implementation representing the address of the new implementation to be set\n  */\n  function _upgradeTo(string version, address implementation) internal {\n    require(_implementation != implementation);\n    _version = version;\n    _implementation = implementation;\n    Upgraded(version, implementation);\n  }\n}\n",
  "sourcePath": "/home/maraoz/git/basil/contracts/UpgradeabilityProxy.sol",
  "compiler": {
    "name": "solc",
    "version": "0.4.18+commit.9cf6e910.Emscripten.clang"
  },
  "schemaVersion": "1.0.1",
  "updatedAt": "2018-02-23T19:07:54.728Z"
}