{
  "contractName": "UpgradeabilityStorage",
  "abi": [
    {
      "constant": true,
      "inputs": [],
      "name": "version",
      "outputs": [
        {
          "name": "",
          "type": "string"
        }
      ],
      "payable": false,
      "stateMutability": "view",
      "type": "function"
    },
    {
      "constant": true,
      "inputs": [],
      "name": "implementation",
      "outputs": [
        {
          "name": "",
          "type": "address"
        }
      ],
      "payable": false,
      "stateMutability": "view",
      "type": "function"
    }
  ],
  "bytecode": "0x6060604052341561000f57600080fd5b6102468061001e6000396000f30060606040526004361061004c576000357c0100000000000000000000000000000000000000000000000000000000900463ffffffff16806354fd4d50146100515780635c60da1b146100df575b600080fd5b341561005c57600080fd5b610064610134565b6040518080602001828103825283818151815260200191508051906020019080838360005b838110156100a4578082015181840152602081019050610089565b50505050905090810190601f1680156100d15780820380516001836020036101000a031916815260200191505b509250505060405180910390f35b34156100ea57600080fd5b6100f26101dc565b604051808273ffffffffffffffffffffffffffffffffffffffff1673ffffffffffffffffffffffffffffffffffffffff16815260200191505060405180910390f35b61013c610206565b60008054600181600116156101000203166002900480601f0160208091040260200160405190810160405280929190818152602001828054600181600116156101000203166002900480156101d25780601f106101a7576101008083540402835291602001916101d2565b820191906000526020600020905b8154815290600101906020018083116101b557829003601f168201915b5050505050905090565b6000600160009054906101000a900473ffffffffffffffffffffffffffffffffffffffff16905090565b6020604051908101604052806000815250905600a165627a7a72305820862fdf58ce6db64b48d94068c83eb0de575198e61e2ea721580e7e53569d52a00029",
  "source": "pragma solidity ^0.4.18;\n\n/**\n * @title UpgradeabilityStorage\n * @dev This contract holds all the necessary state variables to support the upgrade functionality\n */\ncontract UpgradeabilityStorage {\n  // Version name of the current implementation\n  string internal _version;\n\n  // Address of the current implementation\n  address internal _implementation;\n\n  /**\n  * @dev Tells the version name of the current implementation\n  * @return string representing the name of the current version\n  */\n  function version() public view returns (string) {\n    return _version;\n  }\n\n  /**\n  * @dev Tells the address of the current implementation\n  * @return address of the current implementation\n  */\n  function implementation() public view returns (address) {\n    return _implementation;\n  }\n}\n",
  "sourcePath": "/home/maraoz/git/basil/contracts/UpgradeabilityStorage.sol",
  "compiler": {
    "name": "solc",
    "version": "0.4.18+commit.9cf6e910.Emscripten.clang"
  },
  "schemaVersion": "1.0.1",
  "updatedAt": "2018-02-23T21:11:35.958Z"
}