{
  "contractName": "UpgradeabilityOwnerStorage",
  "abi": [
    {
      "constant": true,
      "inputs": [],
      "name": "upgradeabilityOwner",
      "outputs": [
        {
          "name": "",
          "type": "address"
        }
      ],
      "payable": false,
      "stateMutability": "view",
      "type": "function"
    }
  ],
  "bytecode": "0x6060604052341561000f57600080fd5b60eb8061001d6000396000f300606060405260043610603f576000357c0100000000000000000000000000000000000000000000000000000000900463ffffffff1680636fde8202146044575b600080fd5b3415604e57600080fd5b60546096565b604051808273ffffffffffffffffffffffffffffffffffffffff1673ffffffffffffffffffffffffffffffffffffffff16815260200191505060405180910390f35b60008060009054906101000a900473ffffffffffffffffffffffffffffffffffffffff169050905600a165627a7a723058208115df23b3bf797c922b62304a9787ce211d7bf7f05939072201bc66a38e82a20029",
  "source": "pragma solidity ^0.4.18;\n\n/**\n * @title UpgradeabilityOwnerStorage\n * @dev This contract keeps track of the upgradeability owner\n */\ncontract UpgradeabilityOwnerStorage {\n  // Owner of the contract\n  address private _upgradeabilityOwner;\n\n  /**\n   * @dev Tells the address of the owner\n   * @return the address of the owner\n   */\n  function upgradeabilityOwner() public view returns (address) {\n    return _upgradeabilityOwner;\n  }\n\n  /**\n   * @dev Sets the address of the owner\n   */\n  function setUpgradeabilityOwner(address newUpgradeabilityOwner) internal {\n    _upgradeabilityOwner = newUpgradeabilityOwner;\n  }\n}\n",
  "sourcePath": "/home/maraoz/git/basil/contracts/UpgradeabilityOwnerStorage.sol",
  "compiler": {
    "name": "solc",
    "version": "0.4.18+commit.9cf6e910.Emscripten.clang"
  },
  "schemaVersion": "1.0.1",
  "updatedAt": "2018-02-23T21:11:35.956Z"
}