{
  "contractName": "UpgradeabilityStorage",
  "abi": [
    {
      "inputs": [],
      "payable": false,
      "stateMutability": "nonpayable",
      "type": "constructor"
    },
    {
      "constant": true,
      "inputs": [],
      "name": "version",
      "outputs": [
        {
          "name": "",
          "type": "string"
        }
      ],
      "payable": false,
      "stateMutability": "view",
      "type": "function"
    },
    {
      "constant": true,
      "inputs": [],
      "name": "implementation",
      "outputs": [
        {
          "name": "",
          "type": "address"
        }
      ],
      "payable": false,
      "stateMutability": "view",
      "type": "function"
    },
    {
      "constant": true,
      "inputs": [],
      "name": "registry",
      "outputs": [
        {
          "name": "",
          "type": "address"
        }
      ],
      "payable": false,
      "stateMutability": "view",
      "type": "function"
    }
  ],
  "bytecode": "0x6060604052341561000f57600080fd5b336000806101000a81548173ffffffffffffffffffffffffffffffffffffffff021916908373ffffffffffffffffffffffffffffffffffffffff1602179055506102cf8061005e6000396000f300606060405260043610610057576000357c0100000000000000000000000000000000000000000000000000000000900463ffffffff16806354fd4d501461005c5780635c60da1b146100ea5780637b1039991461013f575b600080fd5b341561006757600080fd5b61006f610194565b6040518080602001828103825283818151815260200191508051906020019080838360005b838110156100af578082015181840152602081019050610094565b50505050905090810190601f1680156100dc5780820380516001836020036101000a031916815260200191505b509250505060405180910390f35b34156100f557600080fd5b6100fd61023c565b604051808273ffffffffffffffffffffffffffffffffffffffff1673ffffffffffffffffffffffffffffffffffffffff16815260200191505060405180910390f35b341561014a57600080fd5b610152610266565b604051808273ffffffffffffffffffffffffffffffffffffffff1673ffffffffffffffffffffffffffffffffffffffff16815260200191505060405180910390f35b61019c61028f565b60018054600181600116156101000203166002900480601f0160208091040260200160405190810160405280929190818152602001828054600181600116156101000203166002900480156102325780601f1061020757610100808354040283529160200191610232565b820191906000526020600020905b81548152906001019060200180831161021557829003601f168201915b5050505050905090565b6000600260009054906101000a900473ffffffffffffffffffffffffffffffffffffffff16905090565b60008060009054906101000a900473ffffffffffffffffffffffffffffffffffffffff16905090565b6020604051908101604052806000815250905600a165627a7a72305820ce905fcdfb204a7d650d85e45b68cd56ffc7a31b3b7bb20f6d6b5f42c6b7c55f0029",
  "source": "pragma solidity ^0.4.18;\n\nimport '../registry/IRegistry.sol';\n\n/**\n * @title UpgradeabilityStorage\n * @dev This contract holds all the necessary state variables to support the upgrade functionality\n */\ncontract UpgradeabilityStorage {\n  // Versions registry\n  IRegistry private _registry;\n\n  // Version name of the current implementation\n  string internal _version;\n\n  // Address of the current implementation\n  address internal _implementation;\n\n  /**\n  * @dev Constructor function\n  */\n  function UpgradeabilityStorage() public {\n    _registry = IRegistry(msg.sender);\n  }\n\n  /**\n  * @dev Tells the version name of the current implementation\n  * @return string representing the name of the current version\n  */\n  function version() public view returns (string) {\n    return _version;\n  }\n\n  /**\n  * @dev Tells the address of the current implementation\n  * @return address of the current implementation\n  */\n  function implementation() public view returns (address) {\n    return _implementation;\n  }\n\n  /**\n  * @dev Tells the address of registry\n  * @return address of the registry\n  */\n  function registry() public view returns (IRegistry) {\n    return _registry;\n  }\n}\n",
  "sourcePath": "zos-core/contracts/upgradeability/UpgradeabilityStorage.sol",
  "compiler": {
    "name": "solc",
    "version": "0.4.19+commit.c4cbbb05.Emscripten.clang"
  },
  "schemaVersion": "2.0.0",
  "updatedAt": "2018-03-02T21:33:46.050Z"
}